:100000000201DEBB010689828A83E0225002E722D8
:10001000BBFE02E32289828A83E49322BB010CE5C2
:100020008229F582E5833AF583E0225006E92582AC
:10003000F8E622BBFE06E92582F8E222E58229F5F0
:1000400082E5833AF583E49322BB010FF8E5822928
:10005000F582E5833AF583E028F0225009C582292C
:10006000F8E58226F622BBFE09C58229F8E2258240
:10007000F222F8EA2583F583E9932822BB01068959
:10008000828A83F0225002F722BBFE01F322F8BBE2
:10009000010DE58229F582E5833AF583E8F02250E7
:1000A00006E92582C8F622BBFE05E92582C8F222B0
:1000B0008E1F8F208B218A22892375087E7509283F
:1000C0001203828B298A2A892BE4F524F525AB219A
:1000D000AA22A92385248275830012001CFFC36411
:1000E0008094B04028D3EF648094B95020EF24D09E
:1000F000FFAE250525EEFDC374069DFDE49400AB1F
:1001000029AA2AA92B8D82F583EF12008E0524E5FA
:1001100024B408BAC3E49520E4951F502A7F011245
:1001200002F6AB29AA2AA92B9000017401120049FA
:10013000E92401F9E43AFA120148E4F580E52015D2
:100140002070D1151F80CD22E490000112001C7593
:10015000F00AA4FF1200032FFF90000312001C7589
:10016000F00AA4FE90000212001C2EFE9000051260
:10017000001C75F00AA4FD90000412001C2DFDEF78
:10018000D3943B4003E4FF0EEED3943B4003E4FEE4
:100190000DEDD394174002E4FDEF75F00A84E5F00D
:1001A00012007CEF75F00A8490000112008EEE754B
:1001B000F00A84900002E5F012008EEE75F00A84D9
:1001C00090000312008EED75F00A84900004E5F0B3
:1001D00012008EED75F00A8490000502008E787F83
:1001E000E4F6D8FD75812B020225020330E493A3C7
:1001F000F8E493A34003F68001F208DFF48029E4D9
:1002000093A3F85407240CC8C333C4540F4420C824
:10021000834004F456800146F6DFE4800B010204BB
:10022000081020408090034BE47E019360BCA3FF44
:10023000543F30E509541FFEE493A360010ECF54F0
:10024000C025E060A840B8E493A3FAE493A3F8E4DF
:1002500093A3C8C582C8CAC583CAF0A3C8C582C84B
:10026000CAC583CADFE9DEE780BEAD077E00740140
:10027000A805088005C333CE33CED8F9FFE508FBC7
:10028000EF5B6041E4F580ED25E025E0FFE5A0545B
:10029000E34FF5A07E007401A805088005C333CEA6
:1002A00033CED8F9FFE509FBEF5B600E74142DF82F
:1002B000E6240AF8E64480F5802274142DF8E6243A
:1002C0000AF8E6F580227508FFE4F509F51F7414B5
:1002D000251FF8E4F6051FE51FB408F2E4F51FAF8B
:1002E0001F12026A12035C051FE51FC3940840EF4A
:1002F00053A0E302036A8F26E4C395265013E4F566
:10030000271203150527E527C3947B40F4152680A3
:10031000E7E4F58022E4F528E4F580AF2812026ACC
:100320001203780528E528C3940840ECE4F5802200
:10033000751CFF751D03751E891202C6AB1CAA1D14
:10034000A91E7F687E101200B080FE0A0A3F065B7D
:100350004F666D7D077F6F0208FF1400007F047EEB
:10036000817D77DDFEDEFCDFFA22007F077EFE7DE9
:100370005DDDFEDEFCDFFA22007F027EC7DEFEDFEF
:10038000FC227B007A0079142231312E35392E354A
:02039000360035
:00000001FF
