:100000000204A1BB010689828A83E0225002E72212
:10001000BBFE02E32289828A83E49322BB010CE5C2
:100020008229F582E5833AF583E0225006E92582AC
:10003000F8E622BBFE06E92582F8E222E58229F5F0
:1000400082E5833AF583E49322BB010FF8E5822928
:10005000F582E5833AF583E028F0225009C582292C
:10006000F8E58226F622BBFE09C58229F8E2258240
:10007000F222F8EA2583F583E9932822BB01068959
:10008000828A83F0225002F722BBFE01F322F8BBE2
:10009000010DE58229F582E5833AF583E8F02250E7
:1000A00006E92582C8F622BBFE05E92582C8F222B0
:1000B000BB010DE58229F582E5833AF58302015102
:1000C0005007E92582F802013FBBFE07E92582F8C7
:1000D000020163E58229F582E5833AF58302017521
:1000E000BB0120E58229F582E5833AF583D0F0D083
:1000F000E0F8D0E0F9D0E0FAD0E0FBE8C0E0C0F0F2
:1001000002015A5018E92582F8D083D082D0E0F954
:10011000D0E0FAD0E0FBC082C083020148BBFE18E9
:10012000E92582F8D083D082D0E0F9D0E0FAD0E09F
:10013000FBC082C08302016C228A838982E473E659
:10014000FB08E6FA08E6F922EBF608EAF608E9F613
:1001500022E0FBA3E0FAA3E0F922EBF0A3EAF0A38C
:10016000E9F022E2FB08E2FA08E2F922EBF208EAFF
:10017000F208E9F222E493FB740193FA740293F912
:10018000228B2F8A308931E412007CAB2FAA30A950
:100190003190000174FF12008E900002E412008E74
:1001A000E4F532E532C394085019AB2FE53124034E
:1001B000F9E43530FA7E00E92532F9EE3AFAE53213
:1001C00012007CAB2FAA30A931120003600A7440E0
:1001D0002532F8E6F4FF800774402532F8E6FFE99F
:1001E000240BF9E43AFAE5327C0029F9EC3AFAEF0B
:1001F00012007C0532E532B40AA97BFF7A017981CD
:10020000C003C002C001AB2FAA30A9319000151263
:1002100000E07BFF7A027990C003C002C001AB2FDF
:10022000AA30A9319000181200E07BFF7A05798886
:10023000C003C002C001AB2FAA30A93190001B122D
:1002400000E07BFF7A05795DC003C002C001AB2FDF
:10025000AA30A93190001E1200E0E4F532AB2FAABB
:1002600030A931C003C002C0019000181200B0894B
:10027000828A83D001D002D003AD3212013D120533
:10028000AF0532E532C3940840D353A0E30205BD65
:100290008D3F8B3C8A3D893E90000112001CFD7C05
:1002A000007E007401A83F088005C333CE33CED84A
:1002B000F9FFEE5CFEEF5D4E700302034FE4F58044
:1002C000E53F25E025E0FFE5A054E34FF5A0AB3C7A
:1002D000AA3DA93E90000212001CFD7C007E007425
:1002E00001A83F088005C333CE33CED8F9FFEE5CBA
:1002F000FEEF5D4E602DE92403F9E43AFA7E00E951
:10030000253FF9EE3AFA120003FFAB3CE53E240B21
:10031000F9E4353DFAE92FF9EE3AFA120003448088
:10032000F58022AB3CE53E2403F9E4353DFA7E003E
:10033000E9253FF9EE3AFA120003FFE53E240BF9F6
:10034000E4353DFAE92FF9EE3AFA120003F580227E
:100350008C328D338B2F8A308931900001747E125C
:10036000008E900002742812008EE4F534F535AB4F
:100370002FAA30A9319000211200B08534827583F4
:100380000012001CFFC3648094B04028D3EF648047
:1003900094B95020EF24D0FFAE350535EEFDC3747F
:1003A000099DFDE49400AB2FAA30A9318D82F5831D
:1003B000EF12008E0534E534B408B4C3E49533E499
:1003C00095325046AB2FAA30A931C003C002C001FC
:1003D00090001E1200B089828A83D001D002D0031F
:1003E0007D0112013DAB2FAA30A9319000047401A8
:1003F000120049E92404F9E43AFA12040BE4F58006
:10040000E533153370B5153280B122E49000011246
:10041000001C75F00AA4FF1200032FFF90000312C6
:10042000001C75F00AA4FE90000212001C2EFE9023
:10043000000512001C75F00AA4FD90000412001CB7
:100440002DFDEFD3943B4003E4FF0EEED3943B40ED
:1004500003E4FE0DEDD394174002E4FDEF75F00ABE
:1004600084E5F012007CEF75F00A84900001120020
:100470008EEE75F00A84900002E5F012008EEE75A3
:10048000F00A8490000312008EED75F00A8490004B
:1004900004E5F012008EED75F00A8490000502006C
:1004A0008E787FE4F6D8FD7581490204E802052DB7
:1004B000E493A3F8E493A34003F68001F208DFF489
:1004C0008029E493A3F85407240CC8C333C4540F01
:1004D0004420C8834004F456800146F6DFE4800BD4
:1004E00001020408102040809005CBE47E01936057
:1004F000BCA3FF543F30E509541FFEE493A3600101
:100500000ECF54C025E060A840B8E493A3FAE4936A
:10051000A3F8E493A3C8C582C8CAC583CAF0A3C818
:10052000C582C8CAC583CADFE9DEE780BE7B007A20
:10053000007908120181752CFF752D03752E5075F9
:1005400029FF752A05752BE27B007A007908852E34
:1005500082852D837D057C0012013D80FE8B338AD0
:100560003489358D36E4C395365019E4F537AB330D
:10057000AA34A9351205880537E537C3947B40EEC8
:10058000153680E1E4F580228B388A39893AE4F522
:100590003BE4F580AB38AA39A93AAD3B1202901280
:1005A00005D8053BE53BC3940840E6E4F58022000E
:1005B0007F047E817D77DDFEDEFCDFFA22007F078F
:1005C0007EFE7D5DDDFEDEFCDFFA220A403F065B3B
:1005D0004F666D7D077F6F00007F027EC7DEFEDF06
:0B05E000FC2232332E35392E35380056
:00000001FF
