:10000000020003787FE4F6D8FD75811C02004A02E5
:100010000104E493A3F8E493A34003F68001F208FB
:10002000DFF48029E493A3F85407240CC8C333C435
:10003000540F4420C8834004F456800146F6DFE4A0
:10004000800B01020408102040809000EBE47E0148
:100050009360BCA3FF543F30E509541FFEE493A313
:1000600060010ECF54C025E060A840B8E493A3FA25
:10007000E493A3F8E493A3C8C582C8CAC583CAF0B1
:10008000A3C8C582C8CAC583CADFE9DEE780BEADA2
:10009000077E007401A805088005C333CE33CED88F
:1000A000F9FFE508FBEF5B603FED25E025E0FFE5AC
:1000B000A054E34FF5A07E007401A805088005C395
:1000C00033CE33CED8F9FFE509FBEF5B600F740A3E
:1000D0002DF8E62412F8E64480F580800B740A2D92
:1000E000F8E62412F8E6F5800201170A123F065BD3
:1000F0004F666D7D077F6F0A08FFFC000102030455
:1001000005060700E4F51CAF1C12008F051CE51C5A
:10011000C3940840F280ED007F027EC7DEFEDFFC64
:0101200022BC
:00000001FF
