:100000000201ECBB010689828A83E0225002E722CA
:10001000BBFE02E32289828A83E49322BB010CE5C2
:100020008229F582E5833AF583E0225006E92582AC
:10003000F8E622BBFE06E92582F8E222E58229F5F0
:1000400082E5833AF583E49322BB010FF8E5822928
:10005000F582E5833AF583E028F0225009C582292C
:10006000F8E58226F622BBFE09C58229F8E2258240
:10007000F222F8EA2583F583E9932822BB01068959
:10008000828A83F0225002F722BBFE01F322F8BBE2
:10009000010DE58229F582E5833AF583E8F02250E7
:1000A00006E92582C8F622BBFE05E92582C8F222B0
:1000B0008A838982E4738E228F238B248A25892662
:1000C0007D7EE4FF1203A67D287F011203A61203A2
:1000D0009F8B2C8A2D892EE4F527F528AB24AA25A1
:1000E000A92685278275830012001CFFC3648094B3
:1000F000B04028D3EF648094B95020EF24D0FFAEF5
:10010000280528EEFDC374069DFDE49400AB2CAADF
:100110002DA92E8D82F583EF12008E0527E527B4D9
:1001200008BAC3E49523E49522502A7F0112032ED6
:10013000AB2CAA2DA92E9000017401120049E924CC
:1001400001F9E43AFA120156E4F580E5231523702B
:10015000D1152280CD22E490000112001C75F00A16
:10016000A4FF1200032FFF90000312001C75F00A79
:10017000A4FE90000212001C2EFE90000512001C2E
:1001800075F00AA4FD90000412001C2DFDEFD3941D
:100190003B4003E4FF0EEED3943B4003E4FE0DED41
:1001A000D394174002E4FDEF75F00A84E5F01200E5
:1001B0007CEF75F00A8490000112008EEE75F00A53
:1001C00084900002E5F012008EEE75F00A84900033
:1001D0000312008EED75F00A84900004E5F0120021
:1001E0008EED75F00A8490000502008E787FE4F6AB
:1001F000D8FD75812E020233020304E493A3F8E4D0
:1002000093A34003F68001F208DFF48029E493A36E
:10021000F85407240CC8C333C4540F4420C8834087
:1002200004F456800146F6DFE4800B010204081056
:10023000204080900368E47E019360BCA3FF543F9C
:1002400030E509541FFEE493A360010ECF54C0258E
:10025000E060A840B8E493A3FAE493A3F8E493A37E
:10026000C8C582C8CAC583CAF0A3C8C582C8CAC5E2
:1002700083CADFE9DEE780BEAD077E007401A80512
:10028000088005C333CE33CED8F9FFE51AFBEF5B08
:100290006041E4F580ED25E025E0FFE5A054E34F63
:1002A000F5A07E007401A805088005C333CE33CEC7
:1002B000D8F9FFE51BFBEF5B600E74122DF8E62406
:1002C00008F8E64480F5802274122DF8E62408F838
:1002D000E6F58022751AFFE4F51BF522741225223B
:1002E000F8E4F60522E522B408F2E4F522AF221282
:1002F00002781203790522E522C3940840EF53A047
:10030000E3020387751CFF751D03751EAD751FFF86
:100310007520007521B61202D4AB1CAA1DA91E853A
:1003200021828520837F687E101200B480FE8F2991
:10033000E4C395295013E4F52A12034D052AE52A52
:10034000C3947B40F4152980E7E4F58022E4F52B83
:10035000E4F580AF2B120278120395052BE52BC331
:10036000940840ECE4F580220A083F065B4F666D76
:100370007D077F6F021AFF0000007F047E817D777A
:10038000DDFEDEFCDFFA22007F077EFE7D5DDDFE06
:10039000DEFCDFFA22007F027EC7DEFEDFFC227B6E
:1003A000007A00791222741A2FF8A6052231392E0C
:0603B00035392E35350041
:00000001FF
