:100000000200E58B198A1A891BE4F51C7421251C52
:10001000F8E6FFC364809480501EAB19AA1AA91B8E
:100020001201F0FEAD1CA80574FE088002C333D88F
:10003000FC5E1202360200D9C3EF6480948040490E
:100040007421251CF8E6C36480948A503CAB19AA3D
:100050001AA91B1201F0FFAE1CA806740108800249
:10006000C333D8FC4F120236E51C75F002A4AB195D
:10007000251BF9E51A35F0FA900001E412024874E4
:1000800021251CF8E6242980487421251CF8E6D394
:10009000648094894043AB19AA1AA91B1201F0FF8E
:1000A000AE1CA8067401088002C333D8FC4F1202AC
:1000B00036E51C75F002A4AB19251BF9E51A35F0DD
:1000C000FA90000174011202487421251CF8E624FC
:1000D0001FF8E6900002120248051CE51C64086047
:1000E0000302000C22787FE4F6D8FD75813202010C
:1000F0002C02029DE493A3F8E493A34003F680014D
:10010000F208DFF48029E493A3F85407240CC8C351
:1001100033C4540F4420C8834004F456800146F68B
:10012000DFE4800B0102040810204080900286E486
:100130007E019360BCA3FF543F30E509541FFEE4E9
:1001400093A360010ECF54C025E060A840B8E493AB
:10015000A3FAE493A3F8E493A3C8C582C8CAC583ED
:10016000CAF0A3C8C582C8CAC583CADFE9DEE78072
:10017000BE8B1D8A1E891FE4F520AB1DAA1EA91F78
:100180001201F0FD7C007E007401A820088005C3E8
:1001900033CE33CED8F9FFEE5CFEEF5D4E6044E522
:1001A0002025E025E0FFE5A054E34FF5A0E520750C
:1001B000F002A4AB1D251FF9E51E35F0FA900001F1
:1001C000120209C43333335480F4FF900002120248
:1001D000095FFF900001120209FEC43333335480DB
:1001E0004FF5801202B10520E520C39408408B2210
:1001F000BB010689828A83E0225002E722BBFE020D
:10020000E32289828A83E49322BB010CE58229F5EB
:1002100082E5833AF583E0225006E92582F8E6225A
:10022000BBFE06E92582F8E222E58229F582E58314
:100230003AF583E49322BB010689828A83F0225037
:1002400002F722BBFE01F322F8BB010DE58229F57E
:1002500082E5833AF583E8F0225006E92582C8F664
:1002600022BBFE05E92582C8F2228B198A1A891B56
:10027000751C7BAF1C151CEF600BAB19AA1AA91BD0
:1002800012017180EE220A293F065B4F666D7D07E1
:100290007F6F0821000000FF0A000000007B007A49
:1002A0000079081200037B007A00790812026A8044
:0B02B000F5007F027EC7DEFEDFFC22AF
:00000001FF
