:100000000200C78E1C8F1D8B1E8A1F892075087EDB
:10001000750928E4F511F50AFFFEAB1EAA1FA920F9
:100020008F827583001201B6FDC3648094B04018BE
:10003000D3ED648094B95010ED24D0FDAC060EC30E
:1000400074089C2408F8A6050FBF08CEC3E4951DCC
:10005000E4951C506EE4F52112020B0521E521C345
:10006000947B40F4050BE50BD394094005E4F50BB4
:10007000050CE50CD394054005E4F50C050DE50DE4
:10008000D394094005E4F50D050EE50ED394054023
:1000900005E4F50E050FE510700EE50FD394094049
:1000A00018E4F50F05108011E510B4010CE50FD32D
:1000B00094014005E4F50FF510E51D151D708D1533
:1000C0001C8089E4F58022787FE4F6D8FD758121D3
:1000D00002010E0201FCE493A3F8E493A34003F6AB
:1000E0008001F208DFF48029E493A3F85407240C7C
:1000F000C8C333C4540F4420C8834004F45680015D
:1001000046F6DFE4800B01020408102040809001D5
:10011000E3E47E019360BCA3FF543F30E509541F24
:10012000FEE493A360010ECF54C025E060A840B860
:10013000E493A3FAE493A3F8E493A3C8C582C8CADE
:10014000C583CAF0A3C8C582C8CAC583CADFE9DEB1
:10015000E780BEAD077E007401A805088005C333A3
:10016000CE33CED8F9FFE508FBEF5B6042E4F580C3
:10017000ED25E025E0FFE5A054E34FF5A07E0074F7
:1001800001A805088005C333CE33CED8F9FFE509B1
:10019000FBEF5B600F740A2DF8E62412F8E644804A
:1001A000F580800B740A2DF8E62412F8E6F580122B
:1001B0000217E4F58022BB010CE58229F582E58374
:1001C0003AF583E0225006E92582F8E622BBFE06D6
:1001D000E92582F8E222E58229F582E5833AF58372
:1001E000E493220A123F065B4F666D7D077F6F0A1C
:1001F00008FF140002010005020002007BFF7A02E2
:1002000079217F687E1012000380FEE4FCAF0412A7
:1002100001530CBC08F722007F027EC7DEFEDFFC24
:0A0220002231312E35392E3536001B
:00000001FF
