:100000000204BDBB010689828A83E0225002E722F6
:10001000BBFE02E32289828A83E49322BB010CE5C2
:100020008229F582E5833AF583E0225006E92582AC
:10003000F8E622BBFE06E92582F8E222E58229F5F0
:1000400082E5833AF583E49322BB010FF8E5822928
:10005000F582E5833AF583E028F0225009C582292C
:10006000F8E58226F622BBFE09C58229F8E2258240
:10007000F222F8EA2583F583E9932822BB01068959
:10008000828A83F0225002F722BBFE01F322F8BBE2
:10009000010DE58229F582E5833AF583E8F02250E7
:1000A00006E92582C8F622BBFE05E92582C8F222B0
:1000B000BB010DE58229F582E5833AF58302015102
:1000C0005007E92582F802013FBBFE07E92582F8C7
:1000D000020163E58229F582E5833AF58302017521
:1000E000BB0120E58229F582E5833AF583D0F0D083
:1000F000E0F8D0E0F9D0E0FAD0E0FBE8C0E0C0F0F2
:1001000002015A5018E92582F8D083D082D0E0F954
:10011000D0E0FAD0E0FBC082C083020148BBFE18E9
:10012000E92582F8D083D082D0E0F9D0E0FAD0E09F
:10013000FBC082C08302016C228A838982E473E659
:10014000FB08E6FA08E6F922EBF608EAF608E9F613
:1001500022E0FBA3E0FAA3E0F922EBF0A3EAF0A38C
:10016000E9F022E2FB08E2FA08E2F922EBF208EAFF
:10017000F208E9F222E493FB740193FA740293F912
:10018000228B2F8A308931E412007CAB2FAA30A950
:100190003190000174FF12008E900002E412008E74
:1001A000E4F532E532C394085019AB2FE53124034E
:1001B000F9E43530FA7E00E92532F9EE3AFAE53213
:1001C00012007CAB2FAA30A931120003600A743BE5
:1001D0002532F8E6F4FF8007743B2532F8E6FFE9A4
:1001E000240BF9E43AFAE5327C0029F9EC3AFAEF0B
:1001F00012007C0532E532B40AA97BFF7A017981CD
:10020000C003C002C001AB2FAA30A9319000151263
:1002100000E07BFF7A037961C003C002C001AB2F0D
:10022000AA30A9319000181200E07BFF7A0579B856
:10023000C003C002C001AB2FAA30A93190001B122D
:1002400000E07BFF7A057949C003C002C001AB2FF3
:10025000AA30A93190001E1200E0E4F532AB2FAABB
:1002600030A931C003C002C0019000181200B0894B
:10027000828A83D001D002D003AD3212013D120533
:10028000DF0532E532C3940840D353A0E30205ED05
:100290008D328B2F8A308931900001747E12008E4E
:1002A000900002742812008EE4F533F534AB2FAAC7
:1002B00030A9319000211200B0853382758300127D
:1002C000001CFFC3648094B04028D3EF648094B9CD
:1002D0005020EF24D0FFAE340534EEFDC374099DE9
:1002E000FDE49400AB2FAA30A9318D82F583EF1283
:1002F000008E0533E533B408B4E4C395325061ABE6
:100300002FAA30A931C003C002C00190001E120004
:10031000B089828A83D001D002D0037D0112013DD1
:10032000AB2FAA30A9319000047401120049E924CE
:1003300004F9E43AFA120421AB2FAA30A931C00320
:10034000C002C00190001E1200B089828A83D001D1
:10035000D002D0037D0112013DE4F5801532809971
:10036000228D3A8B378A38893990000112001CFDA2
:100370007C007E007401A83A088005C333CE33CEDA
:10038000D8F9FFEE5CFEEF5D4E7003020420E4F549
:1003900080E53A25E025E0FFE5A054E34FF5A0AB6A
:1003A00037AA38A93990000212001CFD7C007E009B
:1003B0007401A83A088005C333CE33CED8F9FFEED6
:1003C0005CFEEF5D4E602DE92403F9E43AFA7E000D
:1003D000E9253AF9EE3AFA120003FFAB37E5392482
:1003E0000BF9E43538FAE92FF9EE3AFA1200034432
:1003F00080F58022AB37E5392403F9E43538FA7EFD
:1004000000E9253AF9EE3AFA120003FFE539240B28
:10041000F9E43538FAE92FF9EE3AFA120003F580DB
:1004200022E490000112001C75F00AA4FF120003E0
:100430002FFF90000312001C75F00AA4FE9000022A
:1004400012001C2EFE90000512001C75F00AA4FD7F
:1004500090000412001C2DFDEFD3943B400574C4A2
:100460002FFF0EEED3943B400574C42EFE0DEDD34A
:100470009417400474E82DFDEF75F00A84E5F0123E
:10048000007CEF75F00A8490000112008EEE75F08A
:100490000A84900002E5F012008EEE75F00A849056
:1004A000000312008EED75F00A84900004E5F0124E
:1004B000008EED75F00A8490000502008E787FE4CE
:1004C000F6D8FD75814402050402058AE493A3F879
:1004D000E493A34003F68001F208DFF48029E4935B
:1004E000A3F85407240CC8C333C4540F4420C88352
:1004F0004004F456800146F6DFE4800B0102040854
:10050000102040809005FBE47E019360BCA3FF5463
:100510003F30E509541FFEE493A360010ECF54C0A1
:1005200025E060A840B8E493A3FAE493A3F8E49329
:10053000A3C8C582C8CAC583CAF0A3C8C582C8CA31
:10054000C583CADFE9DEE780BE8B338A3489358D07
:1005500036E4C39536502FE4F537AB33AA34A935CA
:10056000C003C002C00190001B1200B089828A83C0
:10057000D001D002D00312013D0537E537C39464A2
:1005800040D8153680CBE4F580227B007A007908CC
:10059000120181752CFF752D02752E907529FF753E
:1005A0002A06752B127B007A007908852E82852D0C
:1005B000837D0512013D80FE8B338A348935E4F555
:1005C00036E4F580AB33AA34A935AD361203611297
:1005D00006080536E536C3940840E6E4F5802200B7
:1005E0007F047E817D77DDFEDEFCDFFA22007F075F
:1005F0007EFE7D5DDDFEDEFCDFFA220A3B3F065B10
:100600004F666D7D077F6F00007F027EC7DEFEDFD5
:0B061000FC2232332E35392E35380025
:00000001FF
