:10000000020003787FE4F6D8FD75811C02004A02E5
:100010000123E493A3F8E493A34003F68001F208DC
:10002000DFF48029E493A3F85407240CC8C333C435
:10003000540F4420C8834004F456800146F6DFE4A0
:10004000800B01020408102040809000EEE47E0145
:100050009360BCA3FF543F30E509541FFEE493A313
:1000600060010ECF54C025E060A840B8E493A3FA25
:10007000E493A3F8E493A3C8C582C8CAC583CAF0B1
:10008000A3C8C582C8CAC583CADFE9DEE780BEADA2
:10009000077E007401A805088005C333CE33CED88F
:1000A000F9FFE508FBEF5B6042E4F580ED25E02514
:1000B000E0FFE5A054E34FF5A07E007401A8050819
:1000C0008005C333CE33CED8F9FFE509FBEF5B6083
:1000D0000F740A2DF8E62412F8E64480F580800BB0
:1000E000740A2DF8E62412F8E6F5800201190A12C6
:1000F0003F065B4F666D7D077F6F0A08FFFC0001BE
:1001000002030405060700E4F51CAF1C12008F056E
:100110001CE51CC3940840F222007F027EC7DEFE6D
:08012000DFFC2212010780FB45
:00000001FF
