:10000000020181BB010689828A83E0225002E72235
:10001000BBFE02E32289828A83E49322BB010CE5C2
:100020008229F582E5833AF583E0225006E92582AC
:10003000F8E622BBFE06E92582F8E222E58229F5F0
:1000400082E5833AF583E49322BB010FF8E5822928
:10005000F582E5833AF583E028F0225009C582292C
:10006000F8E58226F622BBFE09C58229F8E2258240
:10007000F222F8EA2583F583E9932822BB01068959
:10008000828A83F0225002F722BBFE01F322F8BBE2
:10009000010DE58229F582E5833AF583E8F02250E7
:1000A00006E92582C8F622BBFE05E92582C8F222B0
:1000B000BB010DE58229F582E5833AF58302015102
:1000C0005007E92582F802013FBBFE07E92582F8C7
:1000D000020163E58229F582E5833AF58302017521
:1000E000BB0120E58229F582E5833AF583D0F0D083
:1000F000E0F8D0E0F9D0E0FAD0E0FBE8C0E0C0F0F2
:1001000002015A5018E92582F8D083D082D0E0F954
:10011000D0E0FAD0E0FBC082C083020148BBFE18E9
:10012000E92582F8D083D082D0E0F9D0E0FAD0E09F
:10013000FBC082C08302016C228A838982E473E659
:10014000FB08E6FA08E6F922EBF608EAF608E9F613
:1001500022E0FBA3E0FAA3E0F922EBF0A3EAF0A38C
:10016000E9F022E2FB08E2FA08E2F922EBF208EAFF
:10017000F208E9F222E493FB740193FA740293F912
:1001800022787FE4F6D8FD7581120201C80202517F
:10019000E493A3F8E493A34003F68001F208DFF4AC
:1001A0008029E493A3F85407240CC8C333C4540F24
:1001B0004420C8834004F456800146F6DFE4800BF7
:1001C0000102040810204080900244E47E01936004
:1001D000BCA3FF543F30E509541FFEE493A3600124
:1001E0000ECF54C025E060A840B8E493A3FAE4938E
:1001F000A3F8E493A3C8C582C8CAC583CAF0A3C83C
:10020000C582C8CAC583CADFE9DEE780BE151215FC
:1002100012A812A60608A607A812E6FC08E6FD64C6
:10022000014C7005FE7F018016ED24FFFFEC34FFCA
:10023000FE12020DA812E6FC08E62FFFEE3CFE05BA
:10024000120512220A083F065B4F666D7D077F6F1D
:08025000007EC37F5002020D85
:00000001FF
