:100000000204E5BB010689828A83E0225002E722CE
:10001000BBFE02E32289828A83E49322BB010CE5C2
:100020008229F582E5833AF583E0225006E92582AC
:10003000F8E622BBFE06E92582F8E222E58229F5F0
:1000400082E5833AF583E49322BB010FF8E5822928
:10005000F582E5833AF583E028F0225009C582292C
:10006000F8E58226F622BBFE09C58229F8E2258240
:10007000F222F8EA2583F583E9932822BB01068959
:10008000828A83F0225002F722BBFE01F322F8BBE2
:10009000010DE58229F582E5833AF583E8F02250E7
:1000A00006E92582C8F622BBFE05E92582C8F222B0
:1000B000BB010DE58229F582E5833AF58302015102
:1000C0005007E92582F802013FBBFE07E92582F8C7
:1000D000020163E58229F582E5833AF58302017521
:1000E000BB0120E58229F582E5833AF583D0F0D083
:1000F000E0F8D0E0F9D0E0FAD0E0FBE8C0E0C0F0F2
:1001000002015A5018E92582F8D083D082D0E0F954
:10011000D0E0FAD0E0FBC082C083020148BBFE18E9
:10012000E92582F8D083D082D0E0F9D0E0FAD0E09F
:10013000FBC082C08302016C228A838982E473E659
:10014000FB08E6FA08E6F922EBF608EAF608E9F613
:1001500022E0FBA3E0FAA3E0F922EBF0A3EAF0A38C
:10016000E9F022E2FB08E2FA08E2F922EBF208EAFF
:10017000F208E9F222E493FB740193FA740293F912
:10018000228D388B358A36893790000412001CFD89
:100190007C007E007401A838088005C333CE33CEBE
:1001A000D8F9FFEE5CFEEF5D4E70030202ACE4F5A1
:1001B00080E53825E025E0FFE5A054E34FF5A0AB4E
:1001C00035AA36A93790000512001CFD7C007E0080
:1001D0007401A838088005C333CE33CED8F9FFEEBA
:1001E0005CFEEF5D4E6063120003602EE92406F9A9
:1001F000E43AFA7E00E92538F9EE3AFA120003FFF4
:10020000AB35AA36A9379000011200B08F827583F2
:100210000012001C4480F4FF802DAB35E537240626
:10022000F9E43536FA7E00E92538F9EE3AFA12009B
:1002300003FFAA36A9379000011200B08F827583A0
:100240000012001C4480FF8F8022AB35AA36A937EC
:10025000120003602AE92406F9E43AFA7E00E9254F
:1002600038F9EE3AFA120003FFAA36A937900001D6
:100270001200B08F8275830012001CF4FF802BAB3C
:1002800035E5372406F9E43536FA7E00E92538F9F4
:10029000EE3AFA120003FFAA36A9379000011200C5
:1002A000B08F8275830012001CFF8F80228B288AFA
:1002B00029892AE412007CFB7A007939C003C00244
:1002C000C001AB28AA29A92A9000011200E0AB289E
:1002D000AA29A92A90000474FF12008E900005E458
:1002E00012008EE4F52BAB28E52A2406F9E4352923
:1002F000FA7E00E9252BF9EE3AFAE52B12007C058F
:100300002BE52BB408E07BFF7A0279ADC003C00275
:10031000C001AB28AA29A92A90000E1200E07BFF99
:100320007A017981C003C002C001AB28AA29A92A99
:100330009000111200E07BFF7A0579C7C003C0026C
:10034000C001AB28AA29A92A9000141200E07BFF63
:100350007A05799FC003C002C001AB28AA29A92A47
:100360009000171200E0E4F52BAB28AA29A92AC0B7
:1003700003C002C0019000111200B089828A83D0AC
:1003800001D002D003AD2B12013D1205EE052BE585
:100390002BC3940840D353A0E30205FC8D2B8B287C
:1003A0008A29892A900004747E12008E90000574B8
:1003B0002812008EE4F52CF52DAB28AA29A92A9045
:1003C000001A1200B0852C8275830012001CFFC336
:1003D000648094B04028D3EF648094B95020EF2417
:1003E000D0FFAE2D052DEEFDC3740C9DFDE49400F1
:1003F000AB28AA29A92A8D82F583EF12008E052C3D
:10040000E52CB408B4E4C3952B503DAB28AA29A928
:100410002AC003C002C0019000171200B089828A6E
:1004200083D001D002D0037D0112013DAB28AA295F
:10043000A92A9000077401120049E92407F9E43A57
:10044000FA120449152B80BD22E490000112001C11
:1004500075F00AA4FF1200032FFF90000312001C86
:1004600075F00AA4FE90000212001C2EFE900005FA
:1004700012001C75F00AA4FD90000412001C2DFD52
:10048000EFD3943B400574C42FFF0EEED3943B4052
:100490000574C42EFE0DEDD39417400474E82DFDB1
:1004A000EF75F00A84E5F012007CEF75F00A849095
:1004B000000112008EEE75F00A84900002E5F01241
:1004C000008EEE75F00A8490000312008EED75F038
:1004D0000A84900004E5F012008EED75F00A849015
:1004E000000502008E787FE4F6D8FD758142020592
:1004F0002C020571E493A3F8E493A34003F6800172
:10050000F208DFF48029E493A3F85407240CC8C34D
:1005100033C4540F4420C8834004F456800146F687
:10052000DFE4800B010204081020408090060AE4FA
:100530007E019360BCA3FF543F30E509541FFEE4E5
:1005400093A360010ECF54C025E060A840B8E493A7
:10055000A3FAE493A3F8E493A3C8C582C8CAC583E9
:10056000CAF0A3C8C582C8CAC583CADFE9DEE7806E
:10057000BE7B007A0079081202AD7525FF7526034F
:1005800075279C7522FF7523067524217B007A0050
:1005900079088527828526837D0512013D80FE8BA3
:1005A0002C8A2D892E8D2FE4C3952F5019E4F53018
:1005B000AB2CAA2DA92E1205C70530E530C39464D3
:1005C00040EE152F80E1228B318A328933E4F534F5
:1005D000E4F580AB31AA32A933AD341201811206A1
:1005E000170534E534C3940840E6E4F58022007F23
:1005F000047E817D77DDFEDEFCDFFA22007F077E50
:10060000FE7D5DDDFEDEFCDFFA220A393F065B4F30
:10061000666D7D077F6F00007F027EC7DEFEDFFC18
:0A0620002232332E35392E35380012
:00000001FF
