:100000000204C8BB010689828A83E0225002E722EB
:10001000BBFE02E32289828A83E49322BB010CE5C2
:100020008229F582E5833AF583E0225006E92582AC
:10003000F8E622BBFE06E92582F8E222E58229F5F0
:1000400082E5833AF583E49322BB010FF8E5822928
:10005000F582E5833AF583E028F0225009C582292C
:10006000F8E58226F622BBFE09C58229F8E2258240
:10007000F222F8EA2583F583E9932822BB01068959
:10008000828A83F0225002F722BBFE01F322F8BBE2
:10009000010DE58229F582E5833AF583E8F02250E7
:1000A00006E92582C8F622BBFE05E92582C8F222B0
:1000B000BB010DE58229F582E5833AF58302015102
:1000C0005007E92582F802013FBBFE07E92582F8C7
:1000D000020163E58229F582E5833AF58302017521
:1000E000BB0120E58229F582E5833AF583D0F0D083
:1000F000E0F8D0E0F9D0E0FAD0E0FBE8C0E0C0F0F2
:1001000002015A5018E92582F8D083D082D0E0F954
:10011000D0E0FAD0E0FBC082C083020148BBFE18E9
:10012000E92582F8D083D082D0E0F9D0E0FAD0E09F
:10013000FBC082C08302016C228A838982E473E659
:10014000FB08E6FA08E6F922EBF608EAF608E9F613
:1001500022E0FBA3E0FAA3E0F922EBF0A3EAF0A38C
:10016000E9F022E2FB08E2FA08E2F922EBF208EAFF
:10017000F208E9F222E493FB740193FA740293F912
:10018000228B2F8A308931E412007CAB2FAA30A950
:100190003190000174FF12008E900002E412008E74
:1001A000E4F532E532C394085019AB2FE53124034E
:1001B000F9E43530FA7E00E92532F9EE3AFAE53213
:1001C00012007CAB2FAA30A931120003600A7440E0
:1001D0002532F8E6F4FF800774402532F8E6FFE99F
:1001E000240BF9E43AFAE5327C0029F9EC3AFAEF0B
:1001F00012007C0532E532B40AA97BFF7A017981CD
:10020000C003C002C001AB2FAA30A9319000151263
:1002100000E07BFF7A03796CC003C002C001AB2F02
:10022000AA30A9319000181200E07BFF7A0579AF5F
:10023000C003C002C001AB2FAA30A93190001B122D
:1002400000E07BFF7A057984C003C002C001AB2FB8
:10025000AA30A93190001E1200E0E4F532AB2FAABB
:1002600030A931C003C002C0019000181200B0894B
:10027000828A83D001D002D003AD3212013D120533
:10028000D60532E532C3940840D353A0E30205E417
:100290008C328D338B2F8A308931900001747E121D
:1002A000008E900002742812008EE4F534F535AB10
:1002B0002FAA30A9319000211200B08534827583B5
:1002C0000012001CFFC3648094B04028D3EF648008
:1002D00094B95020EF24D0FFAE350535EEFDC37440
:1002E000099DFDE49400AB2FAA30A9318D82F583DE
:1002F000EF12008E0534E534B408B4C3E49533E45A
:1003000095325067AB2FAA30A931C003C002C0019B
:1003100090001E1200B089828A83D001D002D003DF
:100320007D0112013DAB2FAA30A931900004740168
:10033000120049E92404F9E43AFA12042CAB2FAA7A
:1003400030A931C003C002C00190001E1200B08964
:10035000828A83D001D002D0037D0112013DE4F5F1
:1003600080E5331533709415328090228D3F8B3C9D
:100370008A3D893E90000112001CFD7C007E0074C5
:1003800001A83F088005C333CE33CED8F9FFEE5C19
:10039000FEEF5D4E700302042BE4F580E53F25E09F
:1003A00025E0FFE5A054E34FF5A0AB3CAA3DA93EF4
:1003B00090000212001CFD7C007E007401A83F0822
:1003C0008005C333CE33CED8F9FFEE5CFEEF5D4E31
:1003D000602DE92403F9E43AFA7E00E9253FF9EEBD
:1003E0003AFA120003FFAB3CE53E240BF9E4353D3D
:1003F000FAE92FF9EE3AFA1200034480F58022ABB5
:100400003CE53E2403F9E4353DFA7E00E9253FF959
:10041000EE3AFA120003FFE53E240BF9E4353DFA0B
:10042000E92FF9EE3AFA120003F58022E490000178
:1004300012001C75F00AA4FF1200032FFF900003A6
:1004400012001C75F00AA4FE90000212001C2EFE81
:1004500090000512001C75F00AA4FD900004120023
:100460001C2DFDEFD3943B400574C42FFF0EEED33B
:10047000943B400574C42EFE0DEDD39417400474D4
:10048000E82DFDEF75F00A84E5F012007CEF75F0C1
:100490000A8490000112008EEE75F00A849000022A
:1004A000E5F012008EEE75F00A8490000312008EC3
:1004B000ED75F00A84900004E5F012008EED75F001
:1004C0000A8490000502008E787FE4F6D8FD7581DD
:1004D0004902050F020554E493A3F8E493A34003F3
:1004E000F68001F208DFF48029E493A3F85407248E
:1004F0000CC8C333C4540F4420C8834004F456804E
:100500000146F6DFE4800B010204081020408090D1
:1005100005F2E47E019360BCA3FF543F30E509542B
:100520001FFEE493A360010ECF54C025E060A840F5
:10053000B8E493A3FAE493A3F8E493A3C8C582C8EC
:10054000CAC583CAF0A3C8C582C8CAC583CADFE9C1
:10055000DEE780BE7B007A007908120181752CFFEE
:10056000752D02752E907529FF752A06752B097B4E
:10057000007A007908852E82852D837D057C001206
:10058000013D80FE8B338A3489358D36E4C3953640
:100590005019E4F537AB33AA34A9351205AF053746
:1005A000E537C3946440EE153680E1E4F580228B94
:1005B000388A39893AE4F53BE4F580AB38AA39A9A1
:1005C0003AAD3B12036C1205FF053BE53BC39408B3
:1005D00040E6E4F58022007F047E817D77DDFEDE4B
:1005E000FCDFFA22007F077EFE7D5DDDFEDEFCDFA4
:1005F000FA220A403F065B4F666D7D077F6F000061
:100600007F027EC7DEFEDFFC2232332E35392E35E7
:020610003800B0
:00000001FF
